S013000054657374696E672D6B69742E73726563BE
S11300004CC0000067C0000065C0000063C0000071
S113001061C000005FC000005DC000005BC0000064
S113002059C0000057C0000055C0000053C0000074
S113003051C000004FC000004DC000004BC0000084
S113004049C0000047C0000045C0000043C0000094
S113005041C000003FC000003DC000003BC00000A4
S113006039C0000037C0000035C0000033C00000B4
S113007031C000002FC000002DC000002BC00000C4
S113008029C0000027C0000025C00000F0010502BF
S113009023023A024E026202740211241FBECFEF01
S11300A0D0E1DEBFCDBF11E0A0E0B1E0E4EDF8E0C7
S11300B000E00BBF02C007900D92A839B107D9F731
S11300C021E0A8E9B1E001C01D92AA39B207E1F725
S11300D055D1FEC395CFEF92FF920F931F93CF9309
S11300E0DF938EE384BB85B38A7F85BB8EB5816045
S11300F08EBDA99AAA981DBC1CBCAB98AC989899C3
S113010009C0989BFECF1DBC1CBC9899FECFCCB5F2
S1130110DDB508C09899FECF1DBC1CBC989BFECFD2
S1130120CCB5DDB585B3886185BB989909C0989B2A
S1130130FECF1DBC1CBC9899FECFECB4FDB408C026
S11301409899FECF1DBC1CBC989BFECFECB4FDB4AB
S1130150AB98AC9A989909C0989BFECF1DBC1CBC67
S11301609899FECF0CB51DB508C09899FECF1DBC5B
S11301701CBC989BFECF0CB51DB5CF31D10570F4D6
S11301800F311105C0F52FE1E216F104A0F580E06E
S113019091E0C5D0C635D105C8F53BC0C635D105FB
S11301A088F50DC080E090E002C081E090E026E593
S11301B0E216F10420F186E091E0B1D02AC0C01724
S11301C0D10730F4CE15DF0518F48CE091E0A7D008
S11301D0E016F10630F4EC16FD0618F480E191E027
S11301E09ED00C171D07A8F40E151F0590F486E188
S11301F091E095D00EC0C635D10520F4E0CF892B0F
S113020041F4DDCF0635110568F6D9CF0635110561
S113021060F6DF91CF911F910F91FF90EF900895B9
S11302201A9A000000001A98089511BA1B9A1C9893
S1130230979B03C0F5DF9799FDCF8FEF81BB08959E
S1130240CF93C82FF2DFC2BB83B1877E83B9E8DFC7
S113025012BACF91089582B18C6182B987EA91E68E
S11302600197F1F700C0000081E0EADF83EF91E03D
S11302700197F1F700C0000088E3E2DF83ED90E32B
S11302800197F1F700C000008EE0DADF83ED90E320
S11302900197F1F700C0000080E8D2DF83EF91E01E
S11302A00197F1F700C000000895CF93C82FBDDF78
S11302B0C2BB1C9A1B98B4DF12BACF910895EF9277
S11302C0FF920F931F93CF93DF93FC0101900020C3
S11302D0E9F731977F01E81AF90A1E141F04C4F4E0
S11302E08C01C0E0D0E0C031D10524F4F801808154
S11302F0DCDF08C0C031D10511F480ECA1DFF801C6
S11303008081D3DF21960F5F1F4FEC16FD0659F74E
S1130310DF91CF911F910F91FF90EF900895CF93AC
S1130320DF93EC018881882329F02196BEDF89912F
S11303308111FCCFDF91CF910895CF93DF93CDB797
S1130340DEB72A970FB6F894DEBF0FBECDBF4AE0E2
S1130350BE016F5F7F4F89D2CE010196E0DF83ED4E
S113036090E30197F1F700C000002A960FB6F894C5
S1130370DEBF0FBECDBFDF91CF91089517BA14BA77
S11303801ABA1092610067DF8BE191E0C8DFC1E027
S1130390D0E00D9B1AC08BE792E90197F1F700C0FA
S11303A000000D9B12C080919801909199010196D3
S11303B08830910528F4909399018093980105C0A1
S11303C0D0939901C09398010BC0E0919801F091EA
S11303D099013197E730F105E0F6EA5BFF4F3CC243
S11303E081E02EDF83EC99E00197F1F700C0000073
S11303F08AE291E064DF80EC23DF6DDE83ED90E33D
S11304000197F1F700C00000C4CF81E019DF83EC4D
S113041099E00197F1F700C0000078D08BE391E0F8
S11304207EDF8AE590E07DD080EC0ADF86E491E00F
S113043076DF8AB59BB581DF83ED90E30197F1F711
S113044000C00000A6CF81E0FBDE83EC99E00197B9
S1130450F1F700C000008DE491E061DF80ECF0DE94
S113046088E591E05CDF83ED90E30197F1F700C04C
S113047000008FCF81E0E4DE83EC99E00197F1F78F
S113048000C0000080E691E04ADF80ECD9DE83ED15
S113049090E30197F1F700C000007BCF81E0D0DE4C
S11304A083EC99E00197F1F700C000008DE691E03C
S11304B036DF80ECC5DE83ED90E30197F1F700C0F1
S11304C0000067CF81E0BCDE83EC99E00197F1F78F
S11304D000C000008EE791E022DF83ED90E30197F6
S11304E0F1F700C0000055CF81E0AADE83EC99E06B
S11304F00197F1F700C000008CE891E010DF83ED74
S113050090E30197F1F700C0000043CF80E287BB7E
S113051082E88FBD8AE18EBD8FE19EE497BD86BDE2
S11305200895853B910598F4BC01072E000C880BB7
S1130530990BA3D02DE232EB45E351E42AD120E01C
S113054030EC4AE054E407D06AD07BBD6ABD8AB57A
S11305509BB508955058BB27AA270ED0E0C0D1D030
S113056030F0D6D020F031F49F3F11F41EF4C6C011
S11305700EF4E095E7FBBCC0E92FE2D080F3BA1794
S1130580620773078407950718F071F49EF5FAC0A3
S11305900EF4E0950B2EBA2FA02D0B01B90190019A
S11305A00C01CA01A0011124FF27591B99F0593FDE
S11305B050F4503E68F11A16F040A22F232F342F26
S11305C04427585FF3CF469537952795A795F04074
S11305D05395C9F77EF41F16BA0B620B730B840B89
S11305E0BAF09150A1F0FF0FBB1F661F771F881F41
S11305F0C2F70EC0BA0F621F731F841F48F4879599
S113060077956795B795F7959E3F08F0B3CF939587
S1130610880F08F09927EE0F97958795089598D03D
S113062088F09F5790F0B92F9927B751A0F0D1F0D7
S1130630660F771F881F991F1AF0BA95C9F712C061
S1130640B13081F09FD0B1E008959CC0672F782F1E
S11306508827B85F39F0B93FCCF3869577956795CD
S1130660B395D9F73EF490958095709561957F4F39
S11306708F4F9F4F0895E89409C097FB3EF49095DF
S11306808095709561957F4F8F4F9F4F9923A9F067
S1130690F92F96E9BB279395F695879577956795F6
S11306A0B795F111F8CFFAF4BB0F11F460FF1BC03A
S11306B06F5F7F4F8F4F9F4F16C0882311F096E9CD
S11306C011C0772321F09EE8872F762F05C066237B
S11306D071F096E8862F70E060E02AF09A95660F34
S11306E0771F881FDAF7880F9695879597F90895ED
S11306F097F99F6780E870E060E008959FEF80ECD1
S1130700089500240A941616170618060906089573
S113071000240A9412161306140605060895092ED9
S11307200394000C11F4882352F0BB0F40F4BF2B48
S113073011F460FF04C06F5F7F4F8F4F9F4F089588
S113074057FD9058440F551F59F05F3F71F047957E
S1130750880F97FB991F61F09F3F79F08795089563
S1130760121613061406551FF2CF4695F1DF08C082
S1130770161617061806991FF1CF8695710561059F
S113078008940895E894BB2766277727CB0197F947
S113079008950BD0C4CFB5DF28F0BADF18F0952345
S11307A009F0A6CFABCF1124EECFCADFA0F3959FFB
S11307B0D1F3950F50E0551F629FF001729FBB2744
S11307C0F00DB11D639FAA27F00DB11DAA1F649FF0
S11307D06627B00DA11D661F829F2227B00DA11DA3
S11307E0621F739FB00DA11D621F839FA00D611D29
S11307F0221F749F3327A00D611D231F849F600D4A
S1130800211D822F762F6A2F11249F5750408AF082
S1130810E1F088234AF0EE0FFF1FBB1F661F771F0E
S1130820881F91505040A9F79E3F510570F060CF4A
S1130830AACF5F3FECF3983EDCF3869577956795F6
S1130840B795F795E7959F5FC1F7FE2B880F911D2C
S11308509695879597F90895EE0FFF1F0024001CC5
S11308600BBE0790F691E02D0994BB274A3031F472
S1130870992322F4BDE2909581959F4F01C0BB2737
S1130880FB015527AA27880F991FAA1FA41710F048
S1130890A41B83955051B9F7A05DAA3308F0A95D54
S11308A0A193009779F7B111B1931192CB0100C0D4
S11308B0DC01FC01672F71917723E1F7329704C0C3
S11308C07C916D9370836291AE17BF07C8F308954E
S10708D0F894FFCFC6
S11308D4776869746500626C61636B0072656400B7
S11308E4677265656E00626C7565004C43442069EB
S11308F47320776F726B696E6700636865636B5FFF
S1130904636F6C6F725F7465737400736572766F72
S11309145F74657374004F435231413A004C323969
S113092433445F54455354004F435233413A2000F7
S1130934656E636F64657220746573740070726F9E
S113094478696D6974792073656E736F7200736569
S113095476656E207365676D656E740055534152F8
S10B0964542074657374000053
S9030000FC
