S018000054455354494E47206B697420636F64652E73726563CB
S113000045C0000060C00000DDC100005CC000000D
S11300105AC0000058C0000056C0000054C0000080
S113002052C0000050C000004EC000004CC0000090
S11300304AC0000048C0000046C0000044C00000A0
S113004042C0000040C000003EC000003CC00000B0
S11300503AC0000038C0000036C0000034C00000C0
S113006032C0000030C000002EC000002CC00000D0
S11300702AC0000028C0000026C0000024C00000E0
S113008022C0000020C000001EC0000011241FBEBA
S1130090CFEFD0E1DEBFCDBF11E0A0E0B1E0E2EBF5
S11300A0F8E000E00BBF02C007900D92AE3FB1072D
S11300B0D9F722E0AEEFB1E001C01D92A630B2073D
S11300C0E1F789D0F4C39CCFEAE6F0E080818C604C
S11300D0808382E089BF0895949A00000000949878
S11300E0089512B8929A939888B3803520F0F4DF7B
S11300F088B38035E0F78FEF82B90895CF93C82F86
S1130100F0DFC3B982B3837F82BBE6DF13B88FE924
S11301109FE00197F1F700C00000CF91089581B3EB
S11301208C6181BB8FE295E70197F1F700C0000075
S113013081E0E4DF88E3E2DF8EE0E0CF0895CF934F
S1130140C82FCFDFC3B9929A9398C6DF13B88FE94B
S11301509FE00197F1F700C000008091FE019091AB
S1130160FF0101969093FF018093FE01409711F4E3
S113017080ECC4DFCF910895CF93DF93EC018881A5
S1130180882329F02196DBDF89918111FCCF10921D
S1130190FF011092FE01DF91CF910895CF93DF9379
S11301A0CDB7DEB7C456D1090FB6F894DEBF0FBE83
S11301B0CDBF4AE0BE016F5F7F4F46D3CE010196AB
S11301C0DBDFCC59DF4F0FB6F894DEBF0FBECDBFD7
S11301D0DF91CF9108958D98959AABD175DF9FDF0C
S11301E080E091E0C9DF2FEF83ED90E32150804060
S11301F09040E1F700C0000081E090E07FDF8FE0F5
S113020091E0BADF2FEF83ED90E3215080409040DE
S1130210E1F700C0000081E090E070DF8CE191E044
S1130220ABDF2FEF83ED90E3215080409040E1F766
S113023000C0000081E090E061DF8CE291E09CDF8F
S11302402FEF89E698E1215080409040E1F700C00B
S1130250000081E090E052DF8CE391E08DDF2FEF2E
S113026089E698E1215080409040E1F700C0000009
S113027081E090E043DF8EE491E07EDF2FEF89E6BA
S113028098E1215080409040E1F700C0000081E0F7
S113029090E034DF8EE591E06FDF2FEF83ED90E3A4
S11302A0215080409040E1F700C0000081E090E0E0
S11302B025DF83E791E060DF2FEF83ED90E32150AA
S11302C080409040E1F700C0000081E090E016DF3C
S11302D085992CC08EE891E04FDF2FEF83ED90E3FA
S11302E0215080409040E1F700C0000081E090E0A0
S11302F005DF8AE991E040DF8091020290910302D8
S113030094D08091020290910302865A9F4F8DD01F
S113031080910202909103028C549F4F86D081E019
S113032090E0909301028093000227C08BEA91E051
S113033023DF2FEF83ED90E3215080409040E1F7DD
S113034000C0000081E090E0D9DE83E791E014DF93
S11303502FEF83ED90E3215080409040E1F700C0FF
S1130360000081E090E0CADE859907C0789481E0BE
S113037090E090930102809300028091000290919A
S11303800102892BF1F482EC91E0F6DE2FEF83ED8C
S113039090E3215080409040E1F700C0000081E0EC
S11303A090E0ACDE8CEC91E0E7DE2FEF83ED90E3A0
S11303B0215080409040E1F700C0000081E090E0CF
S11303C09DDEFFCF1F920F920FB60F9211240BB632
S11303D00F922F933F934F935F936F937F938F93DA
S11303E09F93AF93BF93EF93FF93809104029091F7
S11303F0050201969093050280930402CFDE87EDF7
S113040091E0BADEFF91EF91BF91AF919F918F91EF
S11304107F916F915F914F913F912F910F900BBE00
S11304200F900FBE0F901F901895CF93DF93EC01A0
S11304308FE19EE497BD86BDCA35D10551F1C43B19
S1130440D10509F44EC0209709F070C0BE010D2EED
S1130450000C880B990B09D12EE53AEB4BE151E4E2
S113046090D120E030E042EC53E46DD0D0D07BBD9D
S11304706ABD2FE78AE196E0215080409040E1F781
S113048000C000002A96C43BD10501F781E036DEA6
S11304904DC081E033DE89ED91E06EDEBE010D2EAC
S11304A0000C880B990BE1D02EE53AEB4BE151E4BB
S11304B068D120E030E042EC53E445D0A8D07BBDC5
S11304C06ABD2FE78AE196E0215080409040E1F731
S11304D000C000002A96C43BD10501F781E00EDE7E
S11304E025C081E00BDE8BEE91E046DEBE010D2ED1
S11304F0000C880B990BB9D02EE53AEB4BE151E493
S113050040D120E030E042EC53E41DD080D07BBDEC
S11305106ABD2FE78AE196E0215080409040E1F7E0
S113052000C000002A9711F781E0E8DDDF91CF9148
S11305300895BD9AC59A8FB582688FBD8EB58A61BC
S11305408EBD08955058BB27AA270ED0E0C0D1D045
S113055030F0D6D020F031F49F3F11F41EF4C6C021
S11305600EF4E095E7FBBCC0E92FE2D080F3BA17A4
S1130570620773078407950718F071F49EF5FAC0B3
S11305800EF4E0950B2EBA2FA02D0B01B9019001AA
S11305900C01CA01A0011124FF27591B99F0593FEE
S11305A050F4503E68F11A16F040A22F232F342F36
S11305B04427585FF3CF469537952795A795F04084
S11305C05395C9F77EF41F16BA0B620B730B840B99
S11305D0BAF09150A1F0FF0FBB1F661F771F881F51
S11305E0C2F70EC0BA0F621F731F841F48F48795A9
S11305F077956795B795F7959E3F08F0B3CF939598
S1130600880F08F09927EE0F97958795089598D04D
S113061088F09F5790F0B92F9927B751A0F0D1F0E7
S1130620660F771F881F991F1AF0BA95C9F712C071
S1130630B13081F09FD0B1E008959CC0672F782F2E
S11306408827B85F39F0B93FCCF3869577956795DD
S1130650B395D9F73EF490958095709561957F4F49
S11306608F4F9F4F0895E89409C097FB3EF49095EF
S11306708095709561957F4F8F4F9F4F9923A9F077
S1130680F92F96E9BB279395F69587957795679506
S1130690B795F111F8CFFAF4BB0F11F460FF1BC04A
S11306A06F5F7F4F8F4F9F4F16C0882311F096E9DD
S11306B011C0772321F09EE8872F762F05C066238B
S11306C071F096E8862F70E060E02AF09A95660F44
S11306D0771F881FDAF7880F9695879597F90895FD
S11306E097F99F6780E870E060E008959FEF80ECE1
S11306F0089500240A941616170618060906089584
S113070000240A9412161306140605060895092EE9
S11307100394000C11F4882352F0BB0F40F4BF2B58
S113072011F460FF04C06F5F7F4F8F4F9F4F089598
S113073057FD9058440F551F59F05F3F71F047958E
S1130740880F97FB991F61F09F3F79F08795089573
S1130750121613061406551FF2CF4695F1DF08C092
S1130760161617061806991FF1CF869571056105AF
S113077008940895E894BB2766277727CB0197F957
S113078008950BD0C4CFB5DF28F0BADF18F0952355
S113079009F0A6CFABCF1124EECFCADFA0F3959F0B
S11307A0D1F3950F50E0551F629FF001729FBB2754
S11307B0F00DB11D639FAA27F00DB11DAA1F649F00
S11307C06627B00DA11D661F829F2227B00DA11DB3
S11307D0621F739FB00DA11D621F839FA00D611D39
S11307E0221F749F3327A00D611D231F849F600D5A
S11307F0211D822F762F6A2F11249F5750408AF093
S1130800E1F088234AF0EE0FFF1FBB1F661F771F1E
S1130810881F91505040A9F79E3F510570F060CF5A
S1130820AACF5F3FECF3983EDCF386957795679506
S1130830B795F795E7959F5FC1F7FE2B880F911D3C
S11308409695879597F90895BB274A3031F49923F3
S113085022F4BDE2909581959F4F01C0BB27FB0117
S11308605527AA27880F991FAA1FA41710F0A41BA5
S113087083955051B9F7A05DAA3308F0A95DA193FF
S1130880009779F7B111B1931192CB0100C0DC014B
S1130890FC01672F71917723E1F7329704C07C91B3
S11308A06D9370836291AE17BF07C8F30895F894EF
S10508B0FFCF74
S11308B24C434420697320776F726B696E670069D9
S11308C26E737472756374696F6E73006D6F6475A1
S11308D26C657320746F207465737400312E7365B4
S11308E272766F2074657374696E6700322E656E5A
S11308F2636F6465722074657374696E6700332E66
S113090272656C61792074657374696E6700312E47
S113091277616E7420746F207465737420736572CA
S1130922766F006966207965732C20707265737323
S113093220726573657420627574746F6E007374CB
S113094261727420736572766F0073746172746974
S11309526E6720616E676C65203000322E77616E9F
S11309627420746F207465737420656E636F64659C
S11309727200332E77616E7420746F207465737401
S11309822072656C61790020007374617274696EFF
S11309926720616E676C652039300073746172740C
S11109A2696E6720616E676C65203138300025
S9030000FC
